{
  "_format": "hh-sol-artifact-1",
  "contractName": "Spread",
  "sourceName": "contracts/Spread.sol",
  "abi": [
    {
      "inputs": [
        {
          "internalType": "address",
          "name": "_daiERC20",
          "type": "address"
        }
      ],
      "stateMutability": "nonpayable",
      "type": "constructor"
    },
    {
      "anonymous": false,
      "inputs": [
        {
          "indexed": false,
          "internalType": "uint256",
          "name": "_betIndex",
          "type": "uint256"
        }
      ],
      "name": "LogBetChallenged",
      "type": "event"
    },
    {
      "anonymous": false,
      "inputs": [
        {
          "indexed": false,
          "internalType": "uint256",
          "name": "_betIndex",
          "type": "uint256"
        }
      ],
      "name": "LogBetCreated",
      "type": "event"
    },
    {
      "anonymous": false,
      "inputs": [
        {
          "indexed": false,
          "internalType": "uint256",
          "name": "_betIndex",
          "type": "uint256"
        }
      ],
      "name": "LogBetSettled",
      "type": "event"
    },
    {
      "anonymous": false,
      "inputs": [
        {
          "indexed": true,
          "internalType": "address",
          "name": "previousOwner",
          "type": "address"
        },
        {
          "indexed": true,
          "internalType": "address",
          "name": "newOwner",
          "type": "address"
        }
      ],
      "name": "OwnershipTransferred",
      "type": "event"
    },
    {
      "inputs": [],
      "name": "betCount",
      "outputs": [
        {
          "internalType": "uint256",
          "name": "",
          "type": "uint256"
        }
      ],
      "stateMutability": "view",
      "type": "function"
    },
    {
      "inputs": [
        {
          "internalType": "uint256",
          "name": "",
          "type": "uint256"
        }
      ],
      "name": "bets",
      "outputs": [
        {
          "internalType": "address",
          "name": "betCreator",
          "type": "address"
        },
        {
          "internalType": "address",
          "name": "betChallenger",
          "type": "address"
        },
        {
          "internalType": "contract AggregatorV3Interface",
          "name": "priceFeed",
          "type": "address"
        },
        {
          "internalType": "bool",
          "name": "bullish",
          "type": "bool"
        },
        {
          "internalType": "bool",
          "name": "isSettled",
          "type": "bool"
        },
        {
          "internalType": "uint256",
          "name": "betSize",
          "type": "uint256"
        },
        {
          "internalType": "uint256",
          "name": "heartBeat",
          "type": "uint256"
        },
        {
          "internalType": "int256",
          "name": "spreadPrice",
          "type": "int256"
        },
        {
          "internalType": "int256",
          "name": "settledPrice",
          "type": "int256"
        },
        {
          "internalType": "uint256",
          "name": "settlementDate",
          "type": "uint256"
        }
      ],
      "stateMutability": "view",
      "type": "function"
    },
    {
      "inputs": [
        {
          "internalType": "uint256",
          "name": "_betIndex",
          "type": "uint256"
        }
      ],
      "name": "challengeBet",
      "outputs": [],
      "stateMutability": "nonpayable",
      "type": "function"
    },
    {
      "inputs": [
        {
          "internalType": "contract AggregatorV3Interface",
          "name": "_priceFeed",
          "type": "address"
        },
        {
          "internalType": "bool",
          "name": "_bullish",
          "type": "bool"
        },
        {
          "internalType": "uint256",
          "name": "_betSize",
          "type": "uint256"
        },
        {
          "internalType": "uint256",
          "name": "_heartBeat",
          "type": "uint256"
        },
        {
          "internalType": "int256",
          "name": "_spreadPrice",
          "type": "int256"
        },
        {
          "internalType": "uint256",
          "name": "_settlementDate",
          "type": "uint256"
        }
      ],
      "name": "createBet",
      "outputs": [],
      "stateMutability": "nonpayable",
      "type": "function"
    },
    {
      "inputs": [],
      "name": "daiIERC20",
      "outputs": [
        {
          "internalType": "contract IERC20",
          "name": "",
          "type": "address"
        }
      ],
      "stateMutability": "view",
      "type": "function"
    },
    {
      "inputs": [],
      "name": "fetchBets",
      "outputs": [
        {
          "components": [
            {
              "internalType": "address",
              "name": "betCreator",
              "type": "address"
            },
            {
              "internalType": "address",
              "name": "betChallenger",
              "type": "address"
            },
            {
              "internalType": "contract AggregatorV3Interface",
              "name": "priceFeed",
              "type": "address"
            },
            {
              "internalType": "bool",
              "name": "bullish",
              "type": "bool"
            },
            {
              "internalType": "bool",
              "name": "isSettled",
              "type": "bool"
            },
            {
              "internalType": "uint256",
              "name": "betSize",
              "type": "uint256"
            },
            {
              "internalType": "uint256",
              "name": "heartBeat",
              "type": "uint256"
            },
            {
              "internalType": "int256",
              "name": "spreadPrice",
              "type": "int256"
            },
            {
              "internalType": "int256",
              "name": "settledPrice",
              "type": "int256"
            },
            {
              "internalType": "uint256",
              "name": "settlementDate",
              "type": "uint256"
            }
          ],
          "internalType": "struct Spread.Bet[]",
          "name": "",
          "type": "tuple[]"
        }
      ],
      "stateMutability": "view",
      "type": "function"
    },
    {
      "inputs": [
        {
          "internalType": "contract AggregatorV3Interface",
          "name": "_priceFeed",
          "type": "address"
        }
      ],
      "name": "getLatestPrice",
      "outputs": [
        {
          "internalType": "int256",
          "name": "",
          "type": "int256"
        },
        {
          "internalType": "uint256",
          "name": "",
          "type": "uint256"
        }
      ],
      "stateMutability": "view",
      "type": "function"
    },
    {
      "inputs": [],
      "name": "owner",
      "outputs": [
        {
          "internalType": "address",
          "name": "",
          "type": "address"
        }
      ],
      "stateMutability": "view",
      "type": "function"
    },
    {
      "inputs": [
        {
          "internalType": "address",
          "name": "",
          "type": "address"
        }
      ],
      "name": "priceFeeds",
      "outputs": [
        {
          "internalType": "bool",
          "name": "",
          "type": "bool"
        }
      ],
      "stateMutability": "view",
      "type": "function"
    },
    {
      "inputs": [],
      "name": "renounceOwnership",
      "outputs": [],
      "stateMutability": "nonpayable",
      "type": "function"
    },
    {
      "inputs": [
        {
          "internalType": "uint256",
          "name": "_betIndex",
          "type": "uint256"
        }
      ],
      "name": "settleBet",
      "outputs": [],
      "stateMutability": "nonpayable",
      "type": "function"
    },
    {
      "inputs": [
        {
          "internalType": "address",
          "name": "newOwner",
          "type": "address"
        }
      ],
      "name": "transferOwnership",
      "outputs": [],
      "stateMutability": "nonpayable",
      "type": "function"
    },
    {
      "inputs": [
        {
          "internalType": "address",
          "name": "",
          "type": "address"
        },
        {
          "internalType": "uint256",
          "name": "",
          "type": "uint256"
        }
      ],
      "name": "userBets",
      "outputs": [
        {
          "internalType": "address",
          "name": "betCreator",
          "type": "address"
        },
        {
          "internalType": "address",
          "name": "betChallenger",
          "type": "address"
        },
        {
          "internalType": "contract AggregatorV3Interface",
          "name": "priceFeed",
          "type": "address"
        },
        {
          "internalType": "bool",
          "name": "bullish",
          "type": "bool"
        },
        {
          "internalType": "bool",
          "name": "isSettled",
          "type": "bool"
        },
        {
          "internalType": "uint256",
          "name": "betSize",
          "type": "uint256"
        },
        {
          "internalType": "uint256",
          "name": "heartBeat",
          "type": "uint256"
        },
        {
          "internalType": "int256",
          "name": "spreadPrice",
          "type": "int256"
        },
        {
          "internalType": "int256",
          "name": "settledPrice",
          "type": "int256"
        },
        {
          "internalType": "uint256",
          "name": "settlementDate",
          "type": "uint256"
        }
      ],
      "stateMutability": "view",
      "type": "function"
    },
    {
      "inputs": [
        {
          "internalType": "address[]",
          "name": "_priceFeeds",
          "type": "address[]"
        }
      ],
      "name": "whitelistPriceFeeds",
      "outputs": [],
      "stateMutability": "nonpayable",
      "type": "function"
    }
  ],
  "bytecode": "0x60806040523480156200001157600080fd5b50604051620033d8380380620033d8833981810160405281019062000037919062000182565b620000576200004b6200009f60201b60201c565b620000a760201b60201c565b80600260006101000a81548173ffffffffffffffffffffffffffffffffffffffff021916908373ffffffffffffffffffffffffffffffffffffffff1602179055505062000207565b600033905090565b60008060009054906101000a900473ffffffffffffffffffffffffffffffffffffffff169050816000806101000a81548173ffffffffffffffffffffffffffffffffffffffff021916908373ffffffffffffffffffffffffffffffffffffffff1602179055508173ffffffffffffffffffffffffffffffffffffffff168173ffffffffffffffffffffffffffffffffffffffff167f8be0079c531659141344cd1fd0a4f28419497f9722a3daafe3b4186f6b6457e060405160405180910390a35050565b6000815190506200017c81620001ed565b92915050565b6000602082840312156200019b576200019a620001e8565b5b6000620001ab848285016200016b565b91505092915050565b6000620001c182620001c8565b9050919050565b600073ffffffffffffffffffffffffffffffffffffffff82169050919050565b600080fd5b620001f881620001b4565b81146200020457600080fd5b50565b6131c180620002176000396000f3fe608060405234801561001057600080fd5b50600436106100ea5760003560e01c8063836ef5451161008c5780639631d7f1116100665780639631d7f11461024a5780639dcb511a14610266578063cf09449714610296578063f2fde38b146102b4576100ea565b8063836ef545146101f2578063874dd2ec1461020e5780638da5cb5b1461022c576100ea565b8063311bcfde116100c8578063311bcfde146101755780636bfeb5be14610193578063715018a6146101af5780638068aa68146101b9576100ea565b806316345f18146100ef57806316fd381a1461012057806322af00fa1461013c575b600080fd5b61010960048036038101906101049190612335565b6102d0565b60405161011792919061296f565b60405180910390f35b61013a600480360381019061013591906123ef565b610368565b005b610156600480360381019061015191906123ef565b610d5e565b60405161016c9a9998979695949392919061281b565b60405180910390f35b61017d610e3c565b60405161018a9190612917565b60405180910390f35b6101ad60048036038101906101a89190612362565b611006565b005b6101b7611599565b005b6101d360048036038101906101ce919061227f565b611621565b6040516101e99a9998979695949392919061281b565b60405180910390f35b61020c600480360381019061020791906122bf565b61170c565b005b61021661181d565b6040516102239190612954565b60405180910390f35b610234611843565b6040516102419190612800565b60405180910390f35b610264600480360381019061025f91906123ef565b61186c565b005b610280600480360381019061027b9190612252565b611f0d565b60405161028d9190612939565b60405180910390f35b61029e611f2d565b6040516102ab9190612af8565b60405180910390f35b6102ce60048036038101906102c99190612252565b611f33565b005b6000806000808473ffffffffffffffffffffffffffffffffffffffff1663feaf968c6040518163ffffffff1660e01b815260040160a06040518083038186803b15801561031c57600080fd5b505afa158015610330573d6000803e3d6000fd5b505050506040513d601f19601f82011682018060405250810190610354919061241c565b509350509250508181935093505050915091565b806005818154811061037d5761037c612dfd565b5b906000526020600020906008020160020160159054906101000a900460ff16156103dc576040517f08c379a00000000000000000000000000000000000000000000000000000000081526004016103d390612a18565b60405180910390fd5b8142600582815481106103f2576103f1612dfd565b5b90600052602060002090600802016007015410610444576040517f08c379a000000000000000000000000000000000000000000000000000000000815260040161043b90612a38565b60405180910390fd5b6000806104956005868154811061045e5761045d612dfd565b5b906000526020600020906008020160020160009054906101000a900473ffffffffffffffffffffffffffffffffffffffff166102d0565b91509150600585815481106104ad576104ac612dfd565b5b90600052602060002090600802016004015481426104cb9190612c5e565b1061050b576040517f08c379a000000000000000000000000000000000000000000000000000000000815260040161050290612a58565b60405180910390fd5b60016005868154811061052157610520612dfd565b5b906000526020600020906008020160020160156101000a81548160ff021916908315150217905550816005868154811061055e5761055d612dfd565b5b9060005260206000209060080201600601819055506005858154811061058757610586612dfd565b5b90600052602060002090600802016005015482131561082f57600585815481106105b4576105b3612dfd565b5b906000526020600020906008020160020160149054906101000a900460ff161561070357600260009054906101000a900473ffffffffffffffffffffffffffffffffffffffff1673ffffffffffffffffffffffffffffffffffffffff1663a9059cbb6005878154811061062a57610629612dfd565b5b906000526020600020906008020160000160009054906101000a900473ffffffffffffffffffffffffffffffffffffffff1660026005898154811061067257610671612dfd565b5b90600052602060002090600802016003015461068e9190612c04565b6040518363ffffffff1660e01b81526004016106ab9291906128ee565b602060405180830381600087803b1580156106c557600080fd5b505af11580156106d9573d6000803e3d6000fd5b505050506040513d601f19601f820116820180604052508101906106fd9190612308565b5061082a565b600260009054906101000a900473ffffffffffffffffffffffffffffffffffffffff1673ffffffffffffffffffffffffffffffffffffffff1663a9059cbb6005878154811061075557610754612dfd565b5b906000526020600020906008020160010160009054906101000a900473ffffffffffffffffffffffffffffffffffffffff1660026005898154811061079d5761079c612dfd565b5b9060005260206000209060080201600301546107b99190612c04565b6040518363ffffffff1660e01b81526004016107d69291906128ee565b602060405180830381600087803b1580156107f057600080fd5b505af1158015610804573d6000803e3d6000fd5b505050506040513d601f19601f820116820180604052508101906108289190612308565b505b610d20565b6005858154811061084357610842612dfd565b5b906000526020600020906008020160050154821215610aea57600585815481106108705761086f612dfd565b5b906000526020600020906008020160020160149054906101000a900460ff166109be57600260009054906101000a900473ffffffffffffffffffffffffffffffffffffffff1673ffffffffffffffffffffffffffffffffffffffff1663a9059cbb600587815481106108e5576108e4612dfd565b5b906000526020600020906008020160010160009054906101000a900473ffffffffffffffffffffffffffffffffffffffff1660026005898154811061092d5761092c612dfd565b5b9060005260206000209060080201600301546109499190612c04565b6040518363ffffffff1660e01b81526004016109669291906128ee565b602060405180830381600087803b15801561098057600080fd5b505af1158015610994573d6000803e3d6000fd5b505050506040513d601f19601f820116820180604052508101906109b89190612308565b50610ae5565b600260009054906101000a900473ffffffffffffffffffffffffffffffffffffffff1673ffffffffffffffffffffffffffffffffffffffff1663a9059cbb60058781548110610a1057610a0f612dfd565b5b906000526020600020906008020160000160009054906101000a900473ffffffffffffffffffffffffffffffffffffffff16600260058981548110610a5857610a57612dfd565b5b906000526020600020906008020160030154610a749190612c04565b6040518363ffffffff1660e01b8152600401610a919291906128ee565b602060405180830381600087803b158015610aab57600080fd5b505af1158015610abf573d6000803e3d6000fd5b505050506040513d601f19601f82011682018060405250810190610ae39190612308565b505b610d1f565b600260009054906101000a900473ffffffffffffffffffffffffffffffffffffffff1673ffffffffffffffffffffffffffffffffffffffff1663a9059cbb60058781548110610b3c57610b3b612dfd565b5b906000526020600020906008020160010160009054906101000a900473ffffffffffffffffffffffffffffffffffffffff1660058881548110610b8257610b81612dfd565b5b9060005260206000209060080201600301546040518363ffffffff1660e01b8152600401610bb19291906128ee565b602060405180830381600087803b158015610bcb57600080fd5b505af1158015610bdf573d6000803e3d6000fd5b505050506040513d601f19601f82011682018060405250810190610c039190612308565b50600260009054906101000a900473ffffffffffffffffffffffffffffffffffffffff1673ffffffffffffffffffffffffffffffffffffffff1663a9059cbb60058781548110610c5657610c55612dfd565b5b906000526020600020906008020160000160009054906101000a900473ffffffffffffffffffffffffffffffffffffffff1660058881548110610c9c57610c9b612dfd565b5b9060005260206000209060080201600301546040518363ffffffff1660e01b8152600401610ccb9291906128ee565b602060405180830381600087803b158015610ce557600080fd5b505af1158015610cf9573d6000803e3d6000fd5b505050506040513d601f19601f82011682018060405250810190610d1d9190612308565b505b5b7f1b730427bc8ff1db8c5bcb3ac483deefa35e588624eda1e73a6769e72923224685604051610d4f9190612af8565b60405180910390a15050505050565b60058181548110610d6e57600080fd5b90600052602060002090600802016000915090508060000160009054906101000a900473ffffffffffffffffffffffffffffffffffffffff16908060010160009054906101000a900473ffffffffffffffffffffffffffffffffffffffff16908060020160009054906101000a900473ffffffffffffffffffffffffffffffffffffffff16908060020160149054906101000a900460ff16908060020160159054906101000a900460ff1690806003015490806004015490806005015490806006015490806007015490508a565b60606005805480602002602001604051908101604052809291908181526020016000905b82821015610ffd5783829060005260206000209060080201604051806101400160405290816000820160009054906101000a900473ffffffffffffffffffffffffffffffffffffffff1673ffffffffffffffffffffffffffffffffffffffff1673ffffffffffffffffffffffffffffffffffffffff1681526020016001820160009054906101000a900473ffffffffffffffffffffffffffffffffffffffff1673ffffffffffffffffffffffffffffffffffffffff1673ffffffffffffffffffffffffffffffffffffffff1681526020016002820160009054906101000a900473ffffffffffffffffffffffffffffffffffffffff1673ffffffffffffffffffffffffffffffffffffffff1673ffffffffffffffffffffffffffffffffffffffff1681526020016002820160149054906101000a900460ff161515151581526020016002820160159054906101000a900460ff161515151581526020016003820154815260200160048201548152602001600582015481526020016006820154815260200160078201548152505081526020019060010190610e60565b50505050905090565b80428111611049576040517f08c379a000000000000000000000000000000000000000000000000000000000815260040161104090612ab8565b60405180910390fd5b86600460008273ffffffffffffffffffffffffffffffffffffffff1673ffffffffffffffffffffffffffffffffffffffff16815260200190815260200160002060009054906101000a900460ff166110d6576040517f08c379a00000000000000000000000000000000000000000000000000000000081526004016110cd906129d8565b60405180910390fd5b60006040518061014001604052803373ffffffffffffffffffffffffffffffffffffffff168152602001600073ffffffffffffffffffffffffffffffffffffffff1681526020018a73ffffffffffffffffffffffffffffffffffffffff168152602001891515815260200160001515815260200188815260200187815260200186815260200160008152602001858152509050600581908060018154018082558091505060019003906000526020600020906008020160009091909190915060008201518160000160006101000a81548173ffffffffffffffffffffffffffffffffffffffff021916908373ffffffffffffffffffffffffffffffffffffffff16021790555060208201518160010160006101000a81548173ffffffffffffffffffffffffffffffffffffffff021916908373ffffffffffffffffffffffffffffffffffffffff16021790555060408201518160020160006101000a81548173ffffffffffffffffffffffffffffffffffffffff021916908373ffffffffffffffffffffffffffffffffffffffff16021790555060608201518160020160146101000a81548160ff02191690831515021790555060808201518160020160156101000a81548160ff02191690831515021790555060a0820151816003015560c0820151816004015560e08201518160050155610100820151816006015561012082015181600701555050600360003373ffffffffffffffffffffffffffffffffffffffff1673ffffffffffffffffffffffffffffffffffffffff16815260200190815260200160002081908060018154018082558091505060019003906000526020600020906008020160009091909190915060008201518160000160006101000a81548173ffffffffffffffffffffffffffffffffffffffff021916908373ffffffffffffffffffffffffffffffffffffffff16021790555060208201518160010160006101000a81548173ffffffffffffffffffffffffffffffffffffffff021916908373ffffffffffffffffffffffffffffffffffffffff16021790555060408201518160020160006101000a81548173ffffffffffffffffffffffffffffffffffffffff021916908373ffffffffffffffffffffffffffffffffffffffff16021790555060608201518160020160146101000a81548160ff02191690831515021790555060808201518160020160156101000a81548160ff02191690831515021790555060a0820151816003015560c0820151816004015560e08201518160050155610100820151816006015561012082015181600701555050600260009054906101000a900473ffffffffffffffffffffffffffffffffffffffff1673ffffffffffffffffffffffffffffffffffffffff166323b872dd33308a6040518463ffffffff1660e01b81526004016114f3939291906128b7565b602060405180830381600087803b15801561150d57600080fd5b505af1158015611521573d6000803e3d6000fd5b505050506040513d601f19601f820116820180604052508101906115459190612308565b507ff3922bd1ccddb299ca98335c2c2d60d53d84b1d93afa999175a835c9c7f6800360016005805490506115799190612bae565b6040516115869190612af8565b60405180910390a1505050505050505050565b6115a161202b565b73ffffffffffffffffffffffffffffffffffffffff166115bf611843565b73ffffffffffffffffffffffffffffffffffffffff1614611615576040517f08c379a000000000000000000000000000000000000000000000000000000000815260040161160c90612a98565b60405180910390fd5b61161f6000612033565b565b6003602052816000526040600020818154811061163d57600080fd5b9060005260206000209060080201600091509150508060000160009054906101000a900473ffffffffffffffffffffffffffffffffffffffff16908060010160009054906101000a900473ffffffffffffffffffffffffffffffffffffffff16908060020160009054906101000a900473ffffffffffffffffffffffffffffffffffffffff16908060020160149054906101000a900460ff16908060020160159054906101000a900460ff1690806003015490806004015490806005015490806006015490806007015490508a565b61171461202b565b73ffffffffffffffffffffffffffffffffffffffff16611732611843565b73ffffffffffffffffffffffffffffffffffffffff1614611788576040517f08c379a000000000000000000000000000000000000000000000000000000000815260040161177f90612a98565b60405180910390fd5b60005b8151811015611819576001600460008484815181106117ad576117ac612dfd565b5b602002602001015173ffffffffffffffffffffffffffffffffffffffff1673ffffffffffffffffffffffffffffffffffffffff16815260200190815260200160002060006101000a81548160ff021916908315150217905550808061181190612d85565b91505061178b565b5050565b600260009054906101000a900473ffffffffffffffffffffffffffffffffffffffff1681565b60008060009054906101000a900473ffffffffffffffffffffffffffffffffffffffff16905090565b8060058054905081106118b4576040517f08c379a00000000000000000000000000000000000000000000000000000000081526004016118ab90612a78565b60405180910390fd5b81600073ffffffffffffffffffffffffffffffffffffffff16600582815481106118e1576118e0612dfd565b5b906000526020600020906008020160000160009054906101000a900473ffffffffffffffffffffffffffffffffffffffff1673ffffffffffffffffffffffffffffffffffffffff16141561196a576040517f08c379a000000000000000000000000000000000000000000000000000000000815260040161196190612ad8565b60405180910390fd5b3373ffffffffffffffffffffffffffffffffffffffff166005828154811061199557611994612dfd565b5b906000526020600020906008020160000160009054906101000a900473ffffffffffffffffffffffffffffffffffffffff1673ffffffffffffffffffffffffffffffffffffffff161415611a1e576040517f08c379a0000000000000000000000000000000000000000000000000000000008152600401611a1590612998565b60405180910390fd5b8260058181548110611a3357611a32612dfd565b5b906000526020600020906008020160020160159054906101000a900460ff1615611a92576040517f08c379a0000000000000000000000000000000000000000000000000000000008152600401611a8990612a18565b60405180910390fd5b83600073ffffffffffffffffffffffffffffffffffffffff1660058281548110611abf57611abe612dfd565b5b906000526020600020906008020160010160009054906101000a900473ffffffffffffffffffffffffffffffffffffffff1673ffffffffffffffffffffffffffffffffffffffff1614611b47576040517f08c379a0000000000000000000000000000000000000000000000000000000008152600401611b3e906129f8565b60405180910390fd5b3360058681548110611b5c57611b5b612dfd565b5b906000526020600020906008020160010160006101000a81548173ffffffffffffffffffffffffffffffffffffffff021916908373ffffffffffffffffffffffffffffffffffffffff160217905550600360003373ffffffffffffffffffffffffffffffffffffffff1673ffffffffffffffffffffffffffffffffffffffff16815260200190815260200160002060058681548110611bfe57611bfd612dfd565b5b906000526020600020906008020190806001815401808255809150506001900390600052602060002090600802016000909190919091506000820160009054906101000a900473ffffffffffffffffffffffffffffffffffffffff168160000160006101000a81548173ffffffffffffffffffffffffffffffffffffffff021916908373ffffffffffffffffffffffffffffffffffffffff1602179055506001820160009054906101000a900473ffffffffffffffffffffffffffffffffffffffff168160010160006101000a81548173ffffffffffffffffffffffffffffffffffffffff021916908373ffffffffffffffffffffffffffffffffffffffff1602179055506002820160009054906101000a900473ffffffffffffffffffffffffffffffffffffffff168160020160006101000a81548173ffffffffffffffffffffffffffffffffffffffff021916908373ffffffffffffffffffffffffffffffffffffffff1602179055506002820160149054906101000a900460ff168160020160146101000a81548160ff0219169083151502179055506002820160159054906101000a900460ff168160020160156101000a81548160ff02191690831515021790555060038201548160030155600482015481600401556005820154816005015560068201548160060155600782015481600701555050600260009054906101000a900473ffffffffffffffffffffffffffffffffffffffff1673ffffffffffffffffffffffffffffffffffffffff166323b872dd333060058981548110611e4c57611e4b612dfd565b5b9060005260206000209060080201600301546040518463ffffffff1660e01b8152600401611e7c939291906128b7565b602060405180830381600087803b158015611e9657600080fd5b505af1158015611eaa573d6000803e3d6000fd5b505050506040513d601f19601f82011682018060405250810190611ece9190612308565b507f0c938e5fc4ec1b47c480dfbf9092b9ab5413e106c74b821f68e866b78360fd6f85604051611efe9190612af8565b60405180910390a15050505050565b60046020528060005260406000206000915054906101000a900460ff1681565b60015481565b611f3b61202b565b73ffffffffffffffffffffffffffffffffffffffff16611f59611843565b73ffffffffffffffffffffffffffffffffffffffff1614611faf576040517f08c379a0000000000000000000000000000000000000000000000000000000008152600401611fa690612a98565b60405180910390fd5b600073ffffffffffffffffffffffffffffffffffffffff168173ffffffffffffffffffffffffffffffffffffffff16141561201f576040517f08c379a0000000000000000000000000000000000000000000000000000000008152600401612016906129b8565b60405180910390fd5b61202881612033565b50565b600033905090565b60008060009054906101000a900473ffffffffffffffffffffffffffffffffffffffff169050816000806101000a81548173ffffffffffffffffffffffffffffffffffffffff021916908373ffffffffffffffffffffffffffffffffffffffff1602179055508173ffffffffffffffffffffffffffffffffffffffff168173ffffffffffffffffffffffffffffffffffffffff167f8be0079c531659141344cd1fd0a4f28419497f9722a3daafe3b4186f6b6457e060405160405180910390a35050565b600061210a61210584612b38565b612b13565b9050808382526020820190508285602086028201111561212d5761212c612e60565b5b60005b8581101561215d57816121438882612167565b845260208401935060208301925050600181019050612130565b5050509392505050565b60008135905061217681613101565b92915050565b600082601f83011261219157612190612e5b565b5b81356121a18482602086016120f7565b91505092915050565b6000813590506121b981613118565b92915050565b6000815190506121ce81613118565b92915050565b6000813590506121e38161312f565b92915050565b6000813590506121f881613146565b92915050565b60008151905061220d81613146565b92915050565b6000813590506122228161315d565b92915050565b6000815190506122378161315d565b92915050565b60008151905061224c81613174565b92915050565b60006020828403121561226857612267612e6a565b5b600061227684828501612167565b91505092915050565b6000806040838503121561229657612295612e6a565b5b60006122a485828601612167565b92505060206122b585828601612213565b9150509250929050565b6000602082840312156122d5576122d4612e6a565b5b600082013567ffffffffffffffff8111156122f3576122f2612e65565b5b6122ff8482850161217c565b91505092915050565b60006020828403121561231e5761231d612e6a565b5b600061232c848285016121bf565b91505092915050565b60006020828403121561234b5761234a612e6a565b5b6000612359848285016121d4565b91505092915050565b60008060008060008060c0878903121561237f5761237e612e6a565b5b600061238d89828a016121d4565b965050602061239e89828a016121aa565b95505060406123af89828a01612213565b94505060606123c089828a01612213565b93505060806123d189828a016121e9565b92505060a06123e289828a01612213565b9150509295509295509295565b60006020828403121561240557612404612e6a565b5b600061241384828501612213565b91505092915050565b600080600080600060a0868803121561243857612437612e6a565b5b60006124468882890161223d565b9550506020612457888289016121fe565b945050604061246888828901612228565b935050606061247988828901612228565b925050608061248a8882890161223d565b9150509295509295909350565b60006124a38383612716565b6101408301905092915050565b6124b981612c92565b82525050565b6124c881612c92565b82525050565b60006124d982612b74565b6124e38185612b8c565b93506124ee83612b64565b8060005b8381101561251f5781516125068882612497565b975061251183612b7f565b9250506001810190506124f2565b5085935050505092915050565b61253581612ca4565b82525050565b61254481612ca4565b82525050565b61255381612d0c565b82525050565b61256281612d0c565b82525050565b61257181612d1e565b82525050565b61258081612cc2565b82525050565b61258f81612cc2565b82525050565b60006125a2602483612b9d565b91506125ad82612e80565b604082019050919050565b60006125c5602683612b9d565b91506125d082612ecf565b604082019050919050565b60006125e8602183612b9d565b91506125f382612f1e565b604082019050919050565b600061260b602083612b9d565b915061261682612f6d565b602082019050919050565b600061262e601d83612b9d565b915061263982612f96565b602082019050919050565b6000612651601e83612b9d565b915061265c82612fbf565b602082019050919050565b6000612674603583612b9d565b915061267f82612fe8565b604082019050919050565b6000612697601183612b9d565b91506126a282613037565b602082019050919050565b60006126ba602083612b9d565b91506126c582613060565b602082019050919050565b60006126dd602283612b9d565b91506126e882613089565b604082019050919050565b6000612700601083612b9d565b915061270b826130d8565b602082019050919050565b6101408201600082015161272d60008501826124b0565b50602082015161274060208501826124b0565b506040820151612753604085018261254a565b506060820151612766606085018261252c565b506080820151612779608085018261252c565b5060a082015161278c60a08501826127e2565b5060c082015161279f60c08501826127e2565b5060e08201516127b260e0850182612577565b506101008201516127c7610100850182612577565b506101208201516127dc6101208501826127e2565b50505050565b6127eb81612cec565b82525050565b6127fa81612cec565b82525050565b600060208201905061281560008301846124bf565b92915050565b600061014082019050612831600083018d6124bf565b61283e602083018c6124bf565b61284b604083018b612559565b612858606083018a61253b565b612865608083018961253b565b61287260a08301886127f1565b61287f60c08301876127f1565b61288c60e0830186612586565b61289a610100830185612586565b6128a86101208301846127f1565b9b9a5050505050505050505050565b60006060820190506128cc60008301866124bf565b6128d960208301856124bf565b6128e660408301846127f1565b949350505050565b600060408201905061290360008301856124bf565b61291060208301846127f1565b9392505050565b6000602082019050818103600083015261293181846124ce565b905092915050565b600060208201905061294e600083018461253b565b92915050565b60006020820190506129696000830184612568565b92915050565b60006040820190506129846000830185612586565b61299160208301846127f1565b9392505050565b600060208201905081810360008301526129b181612595565b9050919050565b600060208201905081810360008301526129d1816125b8565b9050919050565b600060208201905081810360008301526129f1816125db565b9050919050565b60006020820190508181036000830152612a11816125fe565b9050919050565b60006020820190508181036000830152612a3181612621565b9050919050565b60006020820190508181036000830152612a5181612644565b9050919050565b60006020820190508181036000830152612a7181612667565b9050919050565b60006020820190508181036000830152612a918161268a565b9050919050565b60006020820190508181036000830152612ab1816126ad565b9050919050565b60006020820190508181036000830152612ad1816126d0565b9050919050565b60006020820190508181036000830152612af1816126f3565b9050919050565b6000602082019050612b0d60008301846127f1565b92915050565b6000612b1d612b2e565b9050612b298282612d54565b919050565b6000604051905090565b600067ffffffffffffffff821115612b5357612b52612e2c565b5b602082029050602081019050919050565b6000819050602082019050919050565b600081519050919050565b6000602082019050919050565b600082825260208201905092915050565b600082825260208201905092915050565b6000612bb982612cec565b9150612bc483612cec565b9250827fffffffffffffffffffffffffffffffffffffffffffffffffffffffffffffffff03821115612bf957612bf8612dce565b5b828201905092915050565b6000612c0f82612cec565b9150612c1a83612cec565b9250817fffffffffffffffffffffffffffffffffffffffffffffffffffffffffffffffff0483118215151615612c5357612c52612dce565b5b828202905092915050565b6000612c6982612cec565b9150612c7483612cec565b925082821015612c8757612c86612dce565b5b828203905092915050565b6000612c9d82612ccc565b9050919050565b60008115159050919050565b6000612cbb82612c92565b9050919050565b6000819050919050565b600073ffffffffffffffffffffffffffffffffffffffff82169050919050565b6000819050919050565b600069ffffffffffffffffffff82169050919050565b6000612d1782612d30565b9050919050565b6000612d2982612d30565b9050919050565b6000612d3b82612d42565b9050919050565b6000612d4d82612ccc565b9050919050565b612d5d82612e6f565b810181811067ffffffffffffffff82111715612d7c57612d7b612e2c565b5b80604052505050565b6000612d9082612cec565b91507fffffffffffffffffffffffffffffffffffffffffffffffffffffffffffffffff821415612dc357612dc2612dce565b5b600182019050919050565b7f4e487b7100000000000000000000000000000000000000000000000000000000600052601160045260246000fd5b7f4e487b7100000000000000000000000000000000000000000000000000000000600052603260045260246000fd5b7f4e487b7100000000000000000000000000000000000000000000000000000000600052604160045260246000fd5b600080fd5b600080fd5b600080fd5b600080fd5b6000601f19601f8301169050919050565b7f596f752063616e2774206368616c6c656e676520796f757273656c662c20736960008201527f6c6c792e00000000000000000000000000000000000000000000000000000000602082015250565b7f4f776e61626c653a206e6577206f776e657220697320746865207a65726f206160008201527f6464726573730000000000000000000000000000000000000000000000000000602082015250565b7f54686973207072696365666565642069736e27742077686974656c697374656460008201527f2e00000000000000000000000000000000000000000000000000000000000000602082015250565b7f4265742068617320616c7265616479206265656e206368616c6c656e6765642e600082015250565b7f4265742068617320616c7265616479206265656e20736574746c65642e000000600082015250565b7f4265742069736e277420726561647920746f20626520736574746c65642e0000600082015250565b7f5468652070726963652066656564206973206c616767696e672e2043616e277460008201527f20736574746c65207468697320626574207965742e0000000000000000000000602082015250565b7f42657420646f65736e2774206578697374000000000000000000000000000000600082015250565b7f4f776e61626c653a2063616c6c6572206973206e6f7420746865206f776e6572600082015250565b7f596f752063616e277420706c61636520612062657420696e207468652070617360008201527f742e000000000000000000000000000000000000000000000000000000000000602082015250565b7f4265742069736e27742076616c69642e00000000000000000000000000000000600082015250565b61310a81612c92565b811461311557600080fd5b50565b61312181612ca4565b811461312c57600080fd5b50565b61313881612cb0565b811461314357600080fd5b50565b61314f81612cc2565b811461315a57600080fd5b50565b61316681612cec565b811461317157600080fd5b50565b61317d81612cf6565b811461318857600080fd5b5056fea2646970667358221220316b7ce1044da4d3fc749cc522d9fd9b30c3717671156e2da66ca94f282f4b4164736f6c63430008070033",
  "linkReferences": {},
  "deployedLinkReferences": {}
}