{
  "_format": "hh-sol-artifact-1",
  "contractName": "MockAggregator",
  "sourceName": "contracts/MockAggregator.sol",
  "abi": [
    {
      "inputs": [],
      "name": "decimals",
      "outputs": [
        {
          "internalType": "uint8",
          "name": "",
          "type": "uint8"
        }
      ],
      "stateMutability": "view",
      "type": "function"
    },
    {
      "inputs": [],
      "name": "description",
      "outputs": [
        {
          "internalType": "string",
          "name": "",
          "type": "string"
        }
      ],
      "stateMutability": "view",
      "type": "function"
    },
    {
      "inputs": [
        {
          "internalType": "uint80",
          "name": "_roundId",
          "type": "uint80"
        }
      ],
      "name": "getRoundData",
      "outputs": [
        {
          "internalType": "uint80",
          "name": "roundId",
          "type": "uint80"
        },
        {
          "internalType": "int256",
          "name": "answer",
          "type": "int256"
        },
        {
          "internalType": "uint256",
          "name": "startedAt",
          "type": "uint256"
        },
        {
          "internalType": "uint256",
          "name": "updatedAt",
          "type": "uint256"
        },
        {
          "internalType": "uint80",
          "name": "answeredInRound",
          "type": "uint80"
        }
      ],
      "stateMutability": "view",
      "type": "function"
    },
    {
      "inputs": [],
      "name": "latestRoundData",
      "outputs": [
        {
          "internalType": "uint80",
          "name": "roundId",
          "type": "uint80"
        },
        {
          "internalType": "int256",
          "name": "answer",
          "type": "int256"
        },
        {
          "internalType": "uint256",
          "name": "startedAt",
          "type": "uint256"
        },
        {
          "internalType": "uint256",
          "name": "updatedAt",
          "type": "uint256"
        },
        {
          "internalType": "uint80",
          "name": "answeredInRound",
          "type": "uint80"
        }
      ],
      "stateMutability": "view",
      "type": "function"
    },
    {
      "inputs": [],
      "name": "version",
      "outputs": [
        {
          "internalType": "uint256",
          "name": "",
          "type": "uint256"
        }
      ],
      "stateMutability": "view",
      "type": "function"
    }
  ],
  "bytecode": "0x608060405234801561001057600080fd5b50610386806100206000396000f3fe608060405234801561001057600080fd5b50600436106100575760003560e01c8063313ce5671461005c57806354fd4d501461007a5780637284e416146100985780639a6fc8f5146100b6578063feaf968c146100ea575b600080fd5b61006461010c565b6040516100719190610282565b60405180910390f35b610082610111565b60405161008f9190610214565b60405180910390f35b6100a0610116565b6040516100ad91906101f2565b60405180910390f35b6100d060048036038101906100cb9190610150565b61011b565b6040516100e195949392919061022f565b60405180910390f35b6100f261012c565b60405161010395949392919061022f565b60405180910390f35b600090565b600090565b606090565b600080600080600091939590929450565b60008060008060009091929394565b60008135905061014a81610339565b92915050565b60006020828403121561016657610165610323565b5b60006101748482850161013b565b91505092915050565b610186816102b9565b82525050565b60006101978261029d565b6101a181856102a8565b93506101b18185602086016102f0565b6101ba81610328565b840191505092915050565b6101ce816102c3565b82525050565b6101dd816102da565b82525050565b6101ec816102cd565b82525050565b6000602082019050818103600083015261020c818461018c565b905092915050565b600060208201905061022960008301846101c5565b92915050565b600060a08201905061024460008301886101d4565b610251602083018761017d565b61025e60408301866101c5565b61026b60608301856101c5565b61027860808301846101d4565b9695505050505050565b600060208201905061029760008301846101e3565b92915050565b600081519050919050565b600082825260208201905092915050565b6000819050919050565b6000819050919050565b600060ff82169050919050565b600069ffffffffffffffffffff82169050919050565b60005b8381101561030e5780820151818401526020810190506102f3565b8381111561031d576000848401525b50505050565b600080fd5b6000601f19601f8301169050919050565b610342816102da565b811461034d57600080fd5b5056fea2646970667358221220998c439bac21bc222d6a548b293b581d5f7265e311e3879f202ef5f73825574364736f6c63430008070033",
  "linkReferences": {},
  "deployedLinkReferences": {}
}